:100000000C942A000C9447000C9447000C94470071
:100010000C9447000C9447000C9447000C94470044
:100020000C9447000C9447000C9447000C94470034
:100030000C9447000C9447000C9447000C94470024
:100040000C9447000C9447000C9447000C94470014
:100050000C94470011241FBECFE5D8E0DEBFCDBF12
:1000600013E0A0E6B0E0ECE5FFE002C005900D92E1
:10007000A236B107D9F723E0A2E6B3E001C01D9292
:10008000A538B207E1F70E943C010C94AC070C9430
:1000900000008BBB96989798959A83ED90E3019713
:1000A000F1F700C00000959808958BBB969A979839
:1000B000959A83ED90E30197F1F700C000009598C1
:1000C0000895CF93DF93EC018991882319F00E9462
:1000D0005500FACFDF91CF91089581E00E94490049
:1000E00088ED90E00E94610080E690E00E9461004F
:1000F00080EC0E9449008CEE90E00E94610084E751
:1001000090E00E94610084E90E94490080E091E053
:100110000E94610088E890E00E94610084ED0E94E6
:10012000490080E591E00E94610086B3803FA1F123
:10013000109279031092780387B317BA87B38F6050
:1001400087BB80EF88BB86B3803FE9F326B38091FD
:10015000780390917903822B9093790380937803AD
:1001600087EA91E60197F1F700C0000087B317BA5C
:1001700087B3806F87BB8FE088BB26B380917803FD
:1001800090917903822B90937903809378038E3E2C
:10019000910511F40C94EC06089581E00E94490049
:1001A00085E691E00E94610080EC0E94490088E7AA
:1001B00091E00E94610084E90E9449008DE891E08D
:1001C0000E94610084ED0E94490086E991E00E944E
:1001D0006100C0EFDFE086B3803FE9F3109279035E
:1001E0001092780387B317BA87B38F6087BBC8BBF9
:1001F00086B3803FE9F326B3809178039091790329
:10020000822B909379038093780387EA91E6019794
:10021000F1F700C0000087B317BA87B3806F87BBC0
:10022000D8BB26B38091780390917903822B909369
:100230007903809378038E3E910531F484EA91E04E
:100240000E9461000E946D00809178039091790373
:100250008D3E910531F486EA91E00E9461000E9492
:10026000E1038B3E910509F0B6CF88EA91E00E9448
:1002700061000E948803AFCF8FEF8ABB87BB81BB31
:100280008FE087BB80EF88BB83ED90E30197F1F7A8
:1002900000C0000081E00E94490083ED90E30197D7
:1002A000F1F700C0000088E30E94490083ED90E36D
:1002B0000197F1F700C000008FE00E9449008AEA30
:1002C00091E00E94610080EC0E9449008AEB91E07D
:1002D0000E9461009FE52AEE80E09150204080401E
:1002E000E1F700C000000E94CD0081E00E944900BB
:1002F0008BEC91E00E94610080EC0E9449008AED45
:1003000091E00E94610084E90E9449008CEE91E036
:100310000E94610084ED0E9449008AEF91E00E94F2
:10032000610040EF3FE086B3803FE9F3109279032C
:100330001092780387B317BA87B38F6087BB48BB27
:1003400086B3803FE9F326B38091780390917903D7
:10035000822B909379038093780387EA91E6019743
:10036000F1F700C0000087B317BA87B3806F87BB6F
:1003700038BB26B38091780390917903822B9093B8
:100380007903809378038B37910569F60E94CD003D
:10039000CF93DF93CDB7DEB764970FB6F894DEBF87
:1003A0000FBECDBF82E6E82E83E0F82E08ED10E008
:1003B00080E090E0F701C190D1907F018C159D0500
:1003C00034F4B801CE0101960E946507C6010C5EA7
:1003D0001F4FF1E000351F0769F781E00E944900D7
:1003E00089E092E00E94610084E90E9449008BE16B
:1003F00092E00E946100CE0101960E9461002FEB05
:100400008CE595E1215080409040E1F700C000006C
:100410000E94750181E00E94490082E292E00E9400
:10042000610080EC0E94490082E392E00E9461003A
:1004300084E90E9449008DE392E00E94610086B346
:10044000803FC9F1109279031092780387B317BAED
:1004500087B38F6087BB80EF88BB86B3803FE9F3AB
:1004600026B38091780390917903822B909379033E
:100470008093780387EA91E60197F1F700C00000C6
:1004800087B317BA87B3806F87BB8FE088BB26B36B
:100490008091780390917903822B909379038093D4
:1004A00078038E3E910511F40E94CD008D3E91059A
:1004B00011F40E94C8010895CF93DF9300D0CDB707
:1004C000DEB781E00E94490084E191E00E94610072
:1004D00080E292E00E9461004AE050E0BE016F5F5E
:1004E0007F4F80916803909169030E946C07CE0151
:1004F00001960E94610080EC0E94490088E291E030
:100500000E94610080E292E00E9461004AE050E0B7
:10051000BE016F5F7F4F80916A0390916B030E94D1
:100520006C07CE0101960E94610084E90E94490097
:100530008CE391E00E94610080E292E00E94610001
:100540004AE050E0BE016F5F7F4F80916C03909155
:100550006D030E946C07CE0101960E94610084ED3C
:100560000E94490080E591E00E94610086B3803FCF
:10057000A1F1109279031092780387B317BA87B369
:100580008F6087BB80EF88BB86B3803FE9F326B3DB
:100590008091780390917903822B909379038093D3
:1005A000780387EA91E60197F1F700C0000087B36E
:1005B00017BA87B3806F87BB8FE088BB26B3809163
:1005C000780390917903822B909379038093780339
:1005D0008E3E910511F40E940A020F900F90DF9158
:1005E000CF910895CF93DF9300D0CDB7DEB781E0F0
:1005F0000E94490088ED90E00E94610080E292E054
:100600000E9461004AE050E0BE016F5F7F4F809121
:100610006203909163030E946C07CE0101960E94D1
:10062000610080EC0E9449008CEE90E00E94610025
:1006300080E292E00E9461004AE050E0BE016F5FFC
:100640007F4F80916403909165030E946C07CE01F7
:1006500001960E94610084E90E94490080E091E0D7
:100660000E94610080E292E00E9461004AE050E056
:10067000BE016F5F7F4F80916603909167030E9478
:100680006C07CE0101960E94610084ED0E94490032
:1006900080E591E00E94610086B3803FA1F1109255
:1006A00079031092780387B317BA87B38F6087BB3B
:1006B00080EF88BB86B3803FE9F326B3809178034F
:1006C00090917903822B909379038093780387EA42
:1006D00091E60197F1F700C0000087B317BA87B31E
:1006E000806F87BB8FE088BB26B3809178039091A1
:1006F0007903822B90937903809378038E3E910542
:1007000011F40E945C020F900F90DF91CF91089539
:1007100081E00E94490080E592E00E94610080EC47
:100720000E94490081E692E00E94610084E90E94F3
:10073000490086E792E00E94610084ED0E94490032
:1007400086B3803FE9F1109279031092780387B362
:1007500017BA87B38F6087BB80EF88BB86B3803FB3
:10076000E9F326B38091780390917903822B9093DB
:1007700079038093780387EA91E60197F1F700C047
:10078000000087B317BA87B3806F87BB8FE088BB41
:1007900026B38091780390917903822B909379030B
:1007A000809378038E3E910511F40E94F2028091AD
:1007B0007803909179038D3E910511F40E94CD004C
:1007C000089581E00E94490085EA92E00E9461005C
:1007D00080EC0E94490081EB92E00E94610084E974
:1007E0000E94490080EC92E00E94610084ED0E942A
:1007F000490083ED92E00E94610047E0242E312CF5
:1008000054E0452E512C66246394712C78E0872E99
:10081000912CC5E0D0E002E010E0E9E0EE2EF12CF2
:10082000F6E0CF2ED12CA3E0AA2EB12C8091760336
:1008300090917703029721F4109277031092760338
:1008400086B3803F99F3109279031092780387B3AF
:1008500017BA87B38F6087BB20EF28BB86B3803F72
:10086000E9F326B38091780390917903822B9093DA
:1008700079038093780387EA91E60197F1F700C046
:10088000000087B317BA87B3806F87BB9FE098BB20
:1008900026B38091780390917903822B909379030A
:1008A000809378038E3B9105A1F481EE92E00E9443
:1008B00061008091760390917703FC01EE0FFF1F9A
:1008C000EF57FC4F318220820196909377038093FB
:1008D000760380917803909179038E3D9105A1F480
:1008E00083EE92E00E9461008091760390917703FD
:1008F000FC01EE0FFF1FEF57FC4F51824082019623
:100900009093770380937603809178039091790395
:100910008E3E9105A1F484EA91E00E9461008091ED
:10092000760390917703FC01EE0FFF1FEF57FC4F0A
:100930007182608201969093770380937603809111
:100940007803909179038E37910589F484ED0E94A4
:1009500049008FE192E00E94610080E10E9449001D
:1009600080E10E94490010927703109276038091F3
:100970007803909179038D3B9105A1F485EE92E087
:100980000E9461008091760390917703FC01EE0F45
:10099000FF1FEF57FC4F918280820196909377035F
:1009A0008093760380917803909179038D3D910532
:1009B000A1F487EE92E00E9461008091760390910D
:1009C0007703FC01EE0FFF1FEF57FC4FD183C0836D
:1009D00001969093770380937603809178039091AA
:1009E00079038D3E9105A1F486EA91E00E946100B1
:1009F0008091760390917703FC01EE0FFF1FEF5774
:100A0000FC4F1183008301969093770380937603C4
:100A100080917803909179038D379105A1F489EE47
:100A200092E00E9461008091760390917703FC012F
:100A3000EE0FFF1FEF57FC4F11821082019690932B
:100A400077038093760380917803909179038B3BB1
:100A50009105A1F48BEE92E00E94610080917603F3
:100A600090917703FC01EE0FFF1FEF57FC4FF182CF
:100A7000E0820196909377038093760380917803C8
:100A8000909179038B3D9105A1F48DEE92E00E9447
:100A900061008091760390917703FC01EE0FFF1FB8
:100AA000EF57FC4FD182C0820196909377038093D9
:100AB000760380917803909179038B3E9105A1F4A0
:100AC00088EA91E00E94610080917603909177031B
:100AD000FC01EE0FFF1FEF57FC4FB182A082019681
:100AE00090937703809376038091780390917903B4
:100AF0008B37910509F019C1809181039091820390
:100B00004AE0489F9001499F300D11248091830352
:100B100090918403820F931F8A319105E9F48091AB
:100B20006203909163030196909363038093620341
:100B300081E00E9449008FEE92E00E94610080EC0B
:100B40000E94490084EF92E00E94610084E90E94C3
:100B5000490081E093E09DC08531910549F5809180
:100B600064039091650301969093650380936403F9
:100B700081E00E9449008FEE92E00E94610080ECCB
:100B80000E94490084EF92E00E94610084E90E9483
:100B900049008AE093E00E9461004FE181EA97E01A
:100BA000415080409040E1F700C000000E94CD001D
:100BB0008231910531F5809166039091670301962A
:100BC000909367038093660381E00E9449008FEE53
:100BD00092E00E94610080EC0E94490084EF92E064
:100BE0000E94610084E90E94490080E193E00E9434
:100BF00061002FE141EA87E0215040408040E1F769
:100C0000D3CF8E32910531F58091680390916903BD
:100C10000196909369038093680381E00E944900E4
:100C20008FEE92E00E94610080EC0E94490084EF08
:100C300092E00E94610084E90E94490086E193E00D
:100C40000E9461009FE121EA47E09150204040402E
:100C5000E1F7AACF8F32910531F580916A03909127
:100C60006B03019690936B0380936A0381E00E946B
:100C700049008FEE92E00E94610080EC0E944900E2
:100C800084EF92E00E94610084E90E9449008CE1B7
:100C900093E00E9461008FE191EA27E0815090404B
:100CA0002040E1F781CF80339105E9F480916C0316
:100CB00090916D03019690936D0380936C0381E096
:100CC0000E9449008FEE92E00E94610080EC0E9439
:100CD000490084EF92E00E94610084E90E9449008B
:100CE00083E293E058CF8336910569F4E0917A036B
:100CF000F0917B03EE0FFF1FE259FC4F118210822F
:100D00000E946D000EC08236910559F4E0917A037D
:100D1000F0917B03EE0FFF1FE259FC4F118210820E
:100D200045CF1092770310927603109279031092B8
:100D3000780387B3809587BB89EF90E00197F1F73F
:100D400000C0000088B3809588BB87ED96ED0197C1
:100D5000F1F700C000006ACDC0EFDFE086B3803F4E
:100D6000E9F3109279031092780387B317BA87B327
:100D70008F6087BBC8BB86B3803FE9F326B3809101
:100D8000780390917903822B909379038093780371
:100D900087EA91E60197F1F700C0000087B317BA20
:100DA00087B3806F87BBD8BB26B3809178039091BF
:100DB0007903822B90937903809378038E3E91057B
:100DC00011F40E946D0080917803909179038D3E1B
:100DD000910521F60E94CD0081E00E94490084E146
:100DE00091E00E9461008CE990E00E94610080EC3B
:100DF0000E94490088E291E00E94610080EB90E04F
:100E00000E94610084E90E9449008CE391E00E9405
:100E1000610084EC90E00E94610084ED0E94490032
:100E200088E293E00E94610086B3803F09F44CC0E1
:100E300087B317BA87B38F6087BB80EF88BB86B351
:100E4000803FE9F326B38091780390917903822B58
:100E5000909379038093780387EA91E60197F1F7FD
:100E600000C0000087B317BA87B3806F87BB8FE0DD
:100E700088BB26B38091780390917903822B90935D
:100E80007903809378038E3E9105F1F481E00E940E
:100E900049008DE393E00E94610080EC0E944900CC
:100EA00088E493E00E94610084E90E94490082E3A3
:100EB00092E00E94610084ED0E94490086E593E083
:100EC0000E9461000E94AC060895FB01DC010190C4
:100ED0000D920020E1F708954532510520F442308B
:100EE00010F00C947707FB011082CB010895BB270B
:100EF0004A3031F4992322F4BDE2909581959F4FB9
:100F00000C948307BB27FB015527AA27880F991F3D
:100F1000AA1FA41710F0A41B83955051B9F7A05D28
:100F2000AA3308F0A95DA193009779F7B111B193A5
:100F30001192CB010C949C07DC01FC01672F71918D
:100F40007723E1F7329704C07C916D9370836291AF
:0C0F5000AE17BF07C8F30895F894FFCF58
:100F5C002C6869732069643A323600000000000086
:100F6C00000000002C6865722069643A3231000080
:100F7C0000000000000000002C6869732069643ACE
:100F8C003138000000000000000000002C6869737C
:100F9C002069643A343600000000000000000000B4
:100FAC002C6865722069643A343700000000000038
:100FBC00000000002C6869732069643A3438000022
:100FCC0000000000000000005368617368776174D2
:100FDC000000000000000000000000004164697483
:100FEC00690000000000000000000000000000008C
:100FFC00526168756C0000000000000000000000E9
:10100C0000000000416268617900000000000000EF
:10101C000000000000000000417061726E61000071
:10102C00000000000000000000000000416D697429
:10103C0000000000000000000000000000000000A4
:10104C0050524553532031203D3E204E455854209C
:10105C00504147450043484F4F534520594F555237
:10106C0020414354494F4E00312E4C495354204F8C
:10107C00462043414E4449444154455300322E5678
:10108C004F54494E4700332E4D4153544552204D39
:10109C00454E5500310032003300202020202057CF
:1010AC00454C434F4D4520544F00202020564F5463
:1010BC00494E472053595354454D002020202020A1
:1010CC005448414E4B5320544F002020205368610C
:1010DC00736877617420416E616E6400202020205B
:1010EC00526168756C2052616A0020202041626850
:1010FC006179204B756D6172002020202054484589
:10110C002057494E4E455220495300202020202084
:10111C00200050524553532031203D3E2045584924
:10112C00540050524553532032203D3E00524553FB
:10113C00554C545320414E554F4E434D454E540043
:10114C0020202020204D4153544552204D454E55D2
:10115C000050524553532031203D3E564F54455379
:10116C00204C4953540050524553532032203D3E9D
:10117C00455849540020202020202020534F525203
:10118C0059002020594F5520564F54454420424574
:10119C00464F5245005052455353203939203D3E5D
:1011AC0000434F4E444944415445204C495354004C
:1011BC005052455353203938203D3E2043414E4335
:1011CC00454C00594F555220564F5445203D3E201A
:1011DC000037003400380035003000390036004448
:1011EC004F4E4500594F5520564F54454420544FAF
:1011FC0000536861736877617400416469746900B5
:10120C00526168756C00416268617900417061726D
:10121C006E6100416D69740050524553532031206A
:10122C003D3E20594F555220564F54450050524583
:10123C0053532031203D3E0050524556494F555393
:10124C00205041474500564F54494E472050414786
:02125C0045004B
:00000001FF
