:100000000C942A000C9447000C9447000C94470071
:100010000C9447000C9447000C9447000C94470044
:100020000C9447000C9447000C9447000C94470034
:100030000C9447000C9447000C9447000C94470024
:100040000C9447000C9447000C9447000C94470014
:100050000C94470011241FBECFE5D8E0DEBFCDBF12
:1000600013E0A0E6B0E0E0E4FFE002C005900D92EE
:10007000A634B107D9F723E0A6E4B3E001C01D928E
:10008000A936B207E1F70E943C010C949E070C943C
:1000900000008BBB96989798959A83ED90E3019713
:1000A000F1F700C00000959808958BBB969A979839
:1000B000959A83ED90E30197F1F700C000009598C1
:1000C0000895CF93DF93EC018991882319F00E9462
:1000D0005500FACFDF91CF91089581E00E94490049
:1000E00088ED90E00E94610080E690E00E9461004F
:1000F00080EC0E9449008CEE90E00E94610084E751
:1001000090E00E94610084E90E94490080E091E053
:100110000E94610088E890E00E94610084ED0E94E6
:10012000490080E591E00E94610086B3803FA1F123
:1001300010925D0310925C0387B317BA87B38F6088
:1001400087BB80EF88BB86B3803FE9F326B38091FD
:100150005C0390915D03822B90935D0380935C031D
:1001600087EA91E60197F1F700C0000087B317BA5C
:1001700087B3806F87BB8FE088BB26B380915C0319
:1001800090915D03822B90935D0380935C038E3E80
:10019000910511F40C94DE06089581E00E94490057
:1001A00085E691E00E94610080EC0E94490088E7AA
:1001B00091E00E94610084E90E9449008DE891E08D
:1001C0000E94610084ED0E94490086E991E00E944E
:1001D0006100C0EFDFE086B3803FE9F310925D037A
:1001E00010925C0387B317BA87B38F6087BBC8BB15
:1001F00086B3803FE9F326B380915C0390915D0361
:10020000822B90935D0380935C0387EA91E60197CC
:10021000F1F700C0000087B317BA87B3806F87BBC0
:10022000D8BB26B380915C0390915D03822B9093A1
:100230005D0380935C038E3E910531F484EA91E086
:100240000E9461000E946D0080915C0390915D03AB
:100250008D3E910531F486EA91E00E9461000E9492
:10026000D3038B3E910509F0B6CF88EA91E00E9456
:1002700061000E947A03AFCF8FEF8ABB87BB81BB3F
:100280008FE087BB80EF88BB83ED90E30197F1F7A8
:1002900000C0000081E00E94490083ED90E30197D7
:1002A000F1F700C0000088E30E94490083ED90E36D
:1002B0000197F1F700C000008FE00E9449008AEA30
:1002C00091E00E94610080EC0E9449008AEB91E07D
:1002D0000E9461009FE52AEE80E09150204080401E
:1002E000E1F700C000000E94CD0081E00E944900BB
:1002F0008BEC91E00E94610080EC0E9449008AED45
:1003000091E00E94610040EF3FE086B3803FE9F357
:1003100010925D0310925C0387B317BA87B38F60A6
:1003200087BB48BB86B3803FE9F326B380915C036B
:1003300090915D03822B90935D0380935C0387EA29
:1003400091E60197F1F700C0000087B317BA87B3B1
:10035000806F87BB38BB26B380915C0390915D03AF
:10036000822B90935D0380935C038B37910569F634
:100370000E94CD00CF93DF93CDB7DEB764970FB661
:10038000F894DEBF0FBECDBF86E4E82E83E0F82EE2
:1003900008ED10E080E090E0F701C190D1907F017E
:1003A0008C159D0534F4B801CE0101960E945707C3
:1003B000C6010C5E1F4FF1E000351F0769F781E0B1
:1003C0000E9449008CEE91E00E94610084E90E9445
:1003D00049008EEF91E00E946100CE0101960E94DB
:1003E00061002FEB8CE595E1215080409040E1F7D2
:1003F00000C000000E94750181E00E94490085E074
:1004000092E00E94610080EC0E94490085E192E048
:100410000E94610084E90E94490080E292E00E940B
:10042000610086B3803FC9F110925D0310925C03B6
:1004300087B317BA87B38F6087BB80EF88BB86B35B
:10044000803FE9F326B380915C0390915D03822B9A
:1004500090935D0380935C0387EA91E60197F1F73F
:1004600000C0000087B317BA87B3806F87BB8FE0E7
:1004700088BB26B380915C0390915D03822B90939F
:100480005D0380935C038E3E910511F40E94CD00C4
:100490008D3E910511F40E94BA010895CF93DF9328
:1004A00000D0CDB7DEB781E00E94490084E191E041
:1004B0000E94610083E092E00E9461004AE050E007
:1004C000BE016F5F7F4F80914C0390914D030E945E
:1004D0005E07CE0101960E94610080EC0E944900F7
:1004E00088E291E00E94610083E092E00E94610056
:1004F0004AE050E0BE016F5F7F4F80914E039091C4
:100500004F030E945E07CE0101960E94610084E9BC
:100510000E9449008CE391E00E94610083E092E038
:100520000E9461004AE050E0BE016F5F7F4F809102
:100530005003909151030E945E07CE0101960E94E4
:10054000610084ED0E94490080E591E00E94610015
:1005500086B3803FA1F110925D0310925C0387B3D4
:1005600017BA87B38F6087BB80EF88BB86B3803FA5
:10057000E9F326B380915C0390915D03822B909305
:100580005D0380935C0387EA91E60197F1F700C071
:10059000000087B317BA87B3806F87BB8FE088BB33
:1005A00026B380915C0390915D03822B90935D0351
:1005B00080935C038E3E910511F40E94FC010F9024
:1005C0000F90DF91CF910895CF93DF9300D0CDB7F7
:1005D000DEB781E00E94490088ED90E00E94610052
:1005E00083E092E00E9461004AE050E0BE016F5F4C
:1005F0007F4F80914603909147030E945E07CE0192
:1006000001960E94610080EC0E9449008CEE90E00F
:100610000E94610083E092E00E9461004AE050E0A5
:10062000BE016F5F7F4F80914803909149030E9404
:100630005E07CE0101960E94610084E90E94490094
:1006400080E091E00E94610083E092E00E946100FE
:100650004AE050E0BE016F5F7F4F80914A03909166
:100660004B030E945E07CE0101960E94610084ED5B
:100670000E94490080E591E00E94610086B3803FBE
:10068000A1F110925D0310925C0387B317BA87B390
:100690008F6087BB80EF88BB86B3803FE9F326B3CA
:1006A00080915C0390915D03822B90935D03809316
:1006B0005C0387EA91E60197F1F700C0000087B379
:1006C00017BA87B3806F87BB8FE088BB26B3809152
:1006D0005C0390915D03822B90935D0380935C0398
:1006E0008E3E910511F40E944E020F900F90DF9103
:1006F000CF91089581E00E94490083E392E00E9437
:10070000610080EC0E94490084E492E00E94610054
:1007100084E90E94490089E592E00E94610084ED2D
:100720000E94490086B3803FE9F110925D03109268
:100730005C0387B317BA87B38F6087BB80EF88BB32
:1007400086B3803FE9F326B380915C0390915D030B
:10075000822B90935D0380935C0387EA91E6019777
:10076000F1F700C0000087B317BA87B3806F87BB6B
:100770008FE088BB26B380915C0390915D03822B50
:1007800090935D0380935C038E3E910511F40E946B
:10079000E40280915C0390915D038D3E910511F41C
:1007A0000E94CD00089581E00E94490088E892E00F
:1007B0000E94610080EC0E94490084E992E00E945E
:1007C000610084E90E94490083EA92E00E9461008E
:1007D00084ED0E94490086EB92E00E94610047E0B0
:1007E000242E312C54E0452E512C66246394712C18
:1007F00078E0872E912CC5E0D0E002E010E0E9E03F
:10080000EE2EF12CF6E0CF2ED12CA3E0AA2EB12CA7
:1008100080915A0390915B03029721F410925B033D
:1008200010925A0386B3803F99F310925D031092A1
:100830005C0387B317BA87B38F6087BB20EF28BBF1
:1008400086B3803FE9F326B380915C0390915D030A
:10085000822B90935D0380935C0387EA91E6019776
:10086000F1F700C0000087B317BA87B3806F87BB6A
:100870009FE098BB26B380915C0390915D03822B2F
:1008800090935D0380935C038E3B9105A1F484EC0F
:1008900092E00E94610080915A0390915B03FC01F9
:1008A000EE0FFF1FEB59FC4F31822082019690938F
:1008B0005B0380935A0380915C0390915D038E3DAE
:1008C0009105A1F486EC92E00E94610080915A03A8
:1008D00090915B03FC01EE0FFF1FEB59FC4F51821F
:1008E0004082019690935B0380935A0380915C034E
:1008F00090915D038E3E9105A1F484EA91E00E94FF
:10090000610080915A0390915B03FC01EE0FFF1F81
:10091000EB59FC4F71826082019690935B03809348
:100920005A0380915C0390915D038E37910589F4A1
:1009300084ED0E94490082E092E00E94610080E123
:100940000E94490080E10E94490010925B031092CE
:100950005A0380915C0390915D038D3B9105A1F456
:1009600088EC92E00E94610080915A0390915B03B1
:10097000FC01EE0FFF1FEB59FC4F91828082019624
:1009800090935B0380935A0380915C0390915D0385
:100990008D3D9105A1F48AEC92E00E946100809166
:1009A0005A0390915B03FC01EE0FFF1FEB59FC4FC4
:1009B000D183C083019690935B0380935A03809107
:1009C0005C0390915D038D3E9105A1F486EA91E070
:1009D0000E94610080915A0390915B03FC01EE0F2D
:1009E000FF1FEB59FC4F11830083019690935B032B
:1009F00080935A0380915C0390915D038D3791053C
:100A0000A1F48CEC92E00E94610080915A039091D5
:100A10005B03FC01EE0FFF1FEB59FC4F11821082AC
:100A2000019690935B0380935A0380915C039091AD
:100A30005D038B3B9105A1F48EEC92E00E94610076
:100A400080915A0390915B03FC01EE0FFF1FEB595D
:100A5000FC4FF182E082019690935B0380935A03EE
:100A600080915C0390915D038B3D9105A1F480ED35
:100A700092E00E94610080915A0390915B03FC0117
:100A8000EE0FFF1FEB59FC4FD182C082019690936D
:100A90005B0380935A0380915C0390915D038B3ECE
:100AA0009105A1F488EA91E00E94610080915A03C7
:100AB00090915B03FC01EE0FFF1FEB59FC4FB182DD
:100AC000A082019690935B0380935A0380915C030C
:100AD00090915D038B37910509F019C180916503F1
:100AE000909166034AE0489F9001499F300D112480
:100AF0008091670390916803820F931F8A3191055B
:100B0000E9F480914603909147030196909347033F
:100B10008093460381E00E94490082ED92E00E94AA
:100B2000610080EC0E94490087ED92E00E94610024
:100B300084E90E94490084EE92E09DC085319105D0
:100B400049F5809148039091490301969093490398
:100B50008093480381E00E94490082ED92E00E9468
:100B6000610080EC0E94490087ED92E00E946100E4
:100B700084E90E9449008DEE92E00E9461004FE1FD
:100B800081EA97E0415080409040E1F700C00000CA
:100B90000E94CD008231910531F580914A039091F8
:100BA0004B03019690934B0380934A0381E00E948C
:100BB000490082ED92E00E94610080EC0E944900B1
:100BC00087ED92E00E94610084E90E94490083EF72
:100BD00092E00E9461002FE141EA87E0215040400D
:100BE0008040E1F7D3CF8E32910531F580914C03EF
:100BF00090914D03019690934D0380934C0381E0B7
:100C00000E94490082ED92E00E94610080EC0E9407
:100C1000490087ED92E00E94610084E90E9449004A
:100C200089EF92E00E9461009FE121EA47E0915044
:100C300020404040E1F7AACF8F32910531F58091F5
:100C40004E0390914F03019690934F0380934E0370
:100C500081E00E94490082ED92E00E94610080ECF8
:100C60000E94490087ED92E00E94610084E90E94A1
:100C700049008FEF92E00E9461008FE191EA27E046
:100C8000815090402040E1F781CF80339105E9F415
:100C9000809150039091510301969093510380935A
:100CA000500381E00E94490082ED92E00E946100C1
:100CB00080EC0E94490087ED92E00E94610084E987
:100CC0000E94490086E093E058CF8336910569F48D
:100CD000E0915E03F0915F03EE0FFF1FEE5AFC4FB1
:100CE000118210820E946D000EC08236910559F467
:100CF000E0915E03F0915F03EE0FFF1FEE5AFC4F91
:100D00001182108245CF10925B0310925A03109209
:100D10005D0310925C0387B3809587BB89EF90E0F9
:100D20000197F1F700C0000088B3809588BB87ED7C
:100D300096ED0197F1F700C000006ACDC0EFDFE04B
:100D400086B3803FE9F310925D0310925C0387B392
:100D500017BA87B38F6087BBC8BB86B3803FE9F300
:100D600026B380915C0390915D03822B90935D0389
:100D700080935C0387EA91E60197F1F700C00000D9
:100D800087B317BA87B3806F87BBD8BB26B3809170
:100D90005C0390915D03822B90935D0380935C03D1
:100DA0008E3E910511F40E946D0080915C0390913C
:100DB0005D038D3E910521F60E94CD0081E00E94E9
:100DC000490084E191E00E9461008CE990E00E947A
:100DD000610080EC0E94490088E291E00E9461007D
:100DE00080EB90E00E94610084E90E9449008CE35E
:100DF00091E00E94610084EC90E00E94610084ED2B
:100E00000E9449008BE093E00E94610086B3803F1E
:100E100009F44CC087B317BA87B38F6087BB80EFE4
:100E200088BB86B3803FE9F326B380915C03909141
:100E30005D03822B90935D0380935C0387EA91E6C8
:100E40000197F1F700C0000087B317BA87B3806F2E
:100E500087BB8FE088BB26B380915C0390915D03D4
:100E6000822B90935D0380935C038E3E9105F1F499
:100E700081E00E94490080E293E00E94610080ECE2
:100E80000E9449008BE293E00E94610084E90E9485
:100E9000490085E192E00E94610084ED0E944900D2
:100EA00089E393E00E9461000E949E060895FB0181
:100EB000DC0101900D920020E1F7089545325105C3
:100EC00020F4423010F00C946907FB011082CB0132
:100ED0000895BB274A3031F4992322F4BDE290955E
:100EE00081959F4F0C947507BB27FB015527AA27B7
:100EF000880F991FAA1FA41710F0A41B83955051A7
:100F0000B9F7A05DAA3308F0A95DA193009779F71E
:100F1000B111B1931192CB010C948E07DC01FC014D
:100F2000672F71917723E1F7329704C07C916D931D
:100F300070836291AE17BF07C8F30895F894FFCF8E
:100F40002C6869732069643A3236000000000000A2
:100F5000000000002C6865722069643A323100009C
:100F600000000000000000002C6869732069643AEA
:100F70003138000000000000000000002C68697398
:100F80002069643A343600000000000000000000D0
:100F90002C6865722069643A343700000000000054
:100FA000000000002C6869732069643A343800003E
:100FB00000000000000000005368617368776174EE
:100FC000000000000000000000000000416469749F
:100FD00069000000000000000000000000000000A8
:100FE000526168756C000000000000000000000005
:100FF000000000004162686179000000000000000C
:101000000000000000000000417061726E6100008D
:10101000000000000000000000000000416D697445
:1010200000000000000000000000000000000000C0
:1010300050524553532031203D3E204E45585420B8
:10104000504147450043484F4F534520594F555253
:1010500020414354494F4E00312E4C495354204FA8
:10106000462043414E4449444154455300322E5694
:101070004F54494E4700332E4D4153544552204D55
:10108000454E5500310032003300202020202057EB
:10109000454C434F4D4520544F00202020564F547F
:1010A000494E472053595354454D002020202020BD
:1010B0005448414E4B5320544F0020202053686128
:1010C000736877617420416E616E64002020202077
:1010D0005448452057494E4E455220495300202040
:1010E000202020200050524553532031203D3E20E7
:1010F000455849540050524553532032203D3E003C
:10110000524553554C545320414E554F4E434D4537
:101110004E540020202020204D4153544552204D54
:10112000454E550050524553532031203D3E564FB9
:10113000544553204C495354005052455353203288
:10114000203D3E4558495400202020202020205397
:101150004F525259002020594F5520564F54454464
:10116000204245464F52450050524553532039398D
:10117000203D3E00434F4E444944415445204C4994
:101180005354005052455353203938203D3E20439C
:10119000414E43454C00594F555220564F5445201F
:1011A0003D3E200037003400380035003000390063
:1011B0003600444F4E4500594F5520564F54454434
:1011C00020544F005368617368776174004164690B
:1011D000746900526168756C004162686179004110
:1011E0007061726E6100416D6974005052455353D5
:1011F0002031203D3E20594F555220564F54450036
:1012000050524553532031203D3E005052455649DF
:101210004F5553205041474500564F54494E4720A3
:06122000504147450000AB
:00000001FF
